{
  "contractName": "EcommerceStore",
  "abi": [
    {
      "constant": true,
      "inputs": [],
      "name": "productIndex",
      "outputs": [
        {
          "name": "",
          "type": "uint256"
        }
      ],
      "payable": false,
      "stateMutability": "view",
      "type": "function"
    },
    {
      "constant": false,
      "inputs": [],
      "name": "Ecommercestrore",
      "outputs": [],
      "payable": false,
      "stateMutability": "nonpayable",
      "type": "function"
    },
    {
      "constant": false,
      "inputs": [
        {
          "name": "_name",
          "type": "string"
        },
        {
          "name": "_category",
          "type": "string"
        },
        {
          "name": "_imageLink",
          "type": "string"
        },
        {
          "name": "_descLink",
          "type": "uint256"
        },
        {
          "name": "_startTime",
          "type": "uint256"
        },
        {
          "name": "_price",
          "type": "uint256"
        },
        {
          "name": "_condition",
          "type": "uint256"
        }
      ],
      "name": "addProductToStore",
      "outputs": [],
      "payable": false,
      "stateMutability": "nonpayable",
      "type": "function"
    },
    {
      "constant": true,
      "inputs": [
        {
          "name": "_id",
          "type": "uint256"
        }
      ],
      "name": "getProduct",
      "outputs": [
        {
          "name": "",
          "type": "uint256"
        },
        {
          "name": "",
          "type": "string"
        },
        {
          "name": "",
          "type": "string"
        },
        {
          "name": "",
          "type": "string"
        },
        {
          "name": "",
          "type": "uint256"
        },
        {
          "name": "",
          "type": "uint256"
        },
        {
          "name": "",
          "type": "uint256"
        },
        {
          "name": "",
          "type": "uint8"
        },
        {
          "name": "",
          "type": "address"
        }
      ],
      "payable": false,
      "stateMutability": "view",
      "type": "function"
    },
    {
      "constant": false,
      "inputs": [
        {
          "name": "_productId",
          "type": "uint256"
        }
      ],
      "name": "buy",
      "outputs": [],
      "payable": true,
      "stateMutability": "payable",
      "type": "function"
    }
  ],
  "bytecode": "0x608060405234801561001057600080fd5b50610fbd806100206000396000f30060806040526004361061006d576000357c0100000000000000000000000000000000000000000000000000000000900463ffffffff168063011976d914610072578063579c32391461018f578063b9db15b4146101a6578063c897d5a614610388578063d96a094a146103b3575b600080fd5b34801561007e57600080fd5b5061018d600480360381019080803590602001908201803590602001908080601f0160208091040260200160405190810160405280939291908181526020018383808284378201915050505050509192919290803590602001908201803590602001908080601f0160208091040260200160405190810160405280939291908181526020018383808284378201915050505050509192919290803590602001908201803590602001908080601f0160208091040260200160405190810160405280939291908181526020018383808284378201915050505050509192919290803590602001909291908035906020019092919080359060200190929190803590602001909291905050506103d3565b005b34801561019b57600080fd5b506101a46105ac565b005b3480156101b257600080fd5b506101d1600480360381019080803590602001909291905050506105b5565b604051808a815260200180602001806020018060200189815260200188815260200187815260200186600181111561020557fe5b60ff1681526020018573ffffffffffffffffffffffffffffffffffffffff1673ffffffffffffffffffffffffffffffffffffffff16815260200184810384528c818151815260200191508051906020019080838360005b8381101561027757808201518184015260208101905061025c565b50505050905090810190601f1680156102a45780820380516001836020036101000a031916815260200191505b5084810383528b818151815260200191508051906020019080838360005b838110156102dd5780820151818401526020810190506102c2565b50505050905090810190601f16801561030a5780820380516001836020036101000a031916815260200191505b5084810382528a818151815260200191508051906020019080838360005b83811015610343578082015181840152602081019050610328565b50505050905090810190601f1680156103705780820380516001836020036101000a031916815260200191505b509c5050505050505050505050505060405180910390f35b34801561039457600080fd5b5061039d610946565b6040518082815260200191505060405180910390f35b6103d16004803603810190808035906020019092919050505061094c565b005b6103db610e7e565b6001600080828254019250508190555061012060405190810160405280600054815260200189815260200188815260200187815260200186815260200185815260200184815260200183600181111561043057fe5b600181111561043b57fe5b8152602001600073ffffffffffffffffffffffffffffffffffffffff16815250905080600160003373ffffffffffffffffffffffffffffffffffffffff1673ffffffffffffffffffffffffffffffffffffffff1681526020019081526020016000206000805481526020019081526020016000206000820151816000015560208201518160010190805190602001906104d5929190610eec565b5060408201518160020190805190602001906104f2929190610eec565b50606082015181600301908051906020019061050f929190610eec565b506080820151816004015560a0820151816005015560c0820151816006015560e08201518160070160006101000a81548160ff0219169083600181111561055257fe5b02179055506101008201518160070160016101000a81548173ffffffffffffffffffffffffffffffffffffffff021916908373ffffffffffffffffffffffffffffffffffffffff1602179055509050505050505050505050565b60008081905550565b6000606080606060008060008060006105cc610e7e565b60016000600260008e815260200190815260200160002060009054906101000a900473ffffffffffffffffffffffffffffffffffffffff1673ffffffffffffffffffffffffffffffffffffffff1673ffffffffffffffffffffffffffffffffffffffff16815260200190815260200160002060008c8152602001908152602001600020610120604051908101604052908160008201548152602001600182018054600181600116156101000203166002900480601f0160208091040260200160405190810160405280929190818152602001828054600181600116156101000203166002900480156106ff5780601f106106d4576101008083540402835291602001916106ff565b820191906000526020600020905b8154815290600101906020018083116106e257829003601f168201915b50505050508152602001600282018054600181600116156101000203166002900480601f0160208091040260200160405190810160405280929190818152602001828054600181600116156101000203166002900480156107a15780601f10610776576101008083540402835291602001916107a1565b820191906000526020600020905b81548152906001019060200180831161078457829003601f168201915b50505050508152602001600382018054600181600116156101000203166002900480601f0160208091040260200160405190810160405280929190818152602001828054600181600116156101000203166002900480156108435780601f1061081857610100808354040283529160200191610843565b820191906000526020600020905b81548152906001019060200180831161082657829003601f168201915b505050505081526020016004820154815260200160058201548152602001600682015481526020016007820160009054906101000a900460ff16600181111561088857fe5b600181111561089357fe5b81526020016007820160019054906101000a900473ffffffffffffffffffffffffffffffffffffffff1673ffffffffffffffffffffffffffffffffffffffff1673ffffffffffffffffffffffffffffffffffffffff16815250509050806000015181602001518260400151836060015184608001518560a001518660c001518760e00151886101000151879750869650859550995099509950995099509950995099509950509193959799909294969850565b60005481565b610954610e7e565b600160006002600085815260200190815260200160002060009054906101000a900473ffffffffffffffffffffffffffffffffffffffff1673ffffffffffffffffffffffffffffffffffffffff1673ffffffffffffffffffffffffffffffffffffffff1681526020019081526020016000206000838152602001908152602001600020610120604051908101604052908160008201548152602001600182018054600181600116156101000203166002900480601f016020809104026020016040519081016040528092919081815260200182805460018160011615610100020316600290048015610a875780601f10610a5c57610100808354040283529160200191610a87565b820191906000526020600020905b815481529060010190602001808311610a6a57829003601f168201915b50505050508152602001600282018054600181600116156101000203166002900480601f016020809104026020016040519081016040528092919081815260200182805460018160011615610100020316600290048015610b295780601f10610afe57610100808354040283529160200191610b29565b820191906000526020600020905b815481529060010190602001808311610b0c57829003601f168201915b50505050508152602001600382018054600181600116156101000203166002900480601f016020809104026020016040519081016040528092919081815260200182805460018160011615610100020316600290048015610bcb5780601f10610ba057610100808354040283529160200191610bcb565b820191906000526020600020905b815481529060010190602001808311610bae57829003601f168201915b505050505081526020016004820154815260200160058201548152602001600682015481526020016007820160009054906101000a900460ff166001811115610c1057fe5b6001811115610c1b57fe5b81526020016007820160019054906101000a900473ffffffffffffffffffffffffffffffffffffffff1673ffffffffffffffffffffffffffffffffffffffff1673ffffffffffffffffffffffffffffffffffffffff16815250509050600073ffffffffffffffffffffffffffffffffffffffff1681610100015173ffffffffffffffffffffffffffffffffffffffff16141515610cb757600080fd5b8060c001513410151515610cca57600080fd5b3381610100019073ffffffffffffffffffffffffffffffffffffffff16908173ffffffffffffffffffffffffffffffffffffffff168152505080600160006002600086815260200190815260200160002060009054906101000a900473ffffffffffffffffffffffffffffffffffffffff1673ffffffffffffffffffffffffffffffffffffffff1673ffffffffffffffffffffffffffffffffffffffff1681526020019081526020016000206000848152602001908152602001600020600082015181600001556020820151816001019080519060200190610dad929190610eec565b506040820151816002019080519060200190610dca929190610eec565b506060820151816003019080519060200190610de7929190610eec565b506080820151816004015560a0820151816005015560c0820151816006015560e08201518160070160006101000a81548160ff02191690836001811115610e2a57fe5b02179055506101008201518160070160016101000a81548173ffffffffffffffffffffffffffffffffffffffff021916908373ffffffffffffffffffffffffffffffffffffffff1602179055509050505050565b610120604051908101604052806000815260200160608152602001606081526020016060815260200160008152602001600081526020016000815260200160006001811115610ec957fe5b8152602001600073ffffffffffffffffffffffffffffffffffffffff1681525090565b828054600181600116156101000203166002900490600052602060002090601f016020900481019282601f10610f2d57805160ff1916838001178555610f5b565b82800160010185558215610f5b579182015b82811115610f5a578251825591602001919060010190610f3f565b5b509050610f689190610f6c565b5090565b610f8e91905b80821115610f8a576000816000905550600101610f72565b5090565b905600a165627a7a723058202fffbc8bda9ddd2b81c1304c8bd5ab37620d49412d5e38d7f3918b4bc6648a7b0029",
  "source": "pragma solidity ^0.4.24;\ncontract EcommerceStore{\n\n\n    enum  ProductCondition {New,Used}\n    uint public productIndex;\n\n    mapping (address => mapping (uint => Product)) store;\n    mapping (uint => address) productIdInStore;\n    struct Product{\n        uint id;\n        string name;\n        string category;\n        string imageLink;\n        uint descLink;\n        uint startTime;\n        uint price;\n        ProductCondition condition;\n        address buyer;\n\n    }\n\n    function Ecommercestrore() public {\n         productIndex = 0;\n\n    }\n\n\n\n    function addProductToStore(string _name,string _category,string _imageLink\n    ,uint _descLink, uint _startTime,uint _price,uint _condition) public {\n\n        productIndex += 1;\n\nProduct memory product = Product(productIndex,_name, _category, _imageLink,_descLink,_startTime,_price,ProductCondition(_condition),0);\n\n store[msg.sender][productIndex] = product;\n}\n\nfunction getProduct(uint _id) public view\n\nreturns (uint,string,string,string,uint,uint,uint,ProductCondition,address)\n\n{\n\n Product memory product = store[productIdInStore[_id]][_id];\n\n    return (product.id,product.name,product.category,product.imageLink,product.descLink\n    ,product.startTime,product.price,product.condition,product.buyer);\n}\n\nfunction buy(uint _productId)payable public {\n\n\n Product memory product = store[productIdInStore[_productId]][_productId];\n require(product.buyer == address(0));\n require(msg.value >= product.price);\n product.buyer = msg.sender;\n store[productIdInStore[_productId]][_productId] = product;\n\n}\n\n\n}\n",
  "sourcePath": "C:\\Users\\Pranav Maheshwari\\desktop\\mahesh\\contracts\\EcommerceStore.sol",
  "compiler": {
    "name": "solc",
    "version": "0.4.24+commit.e67f0147.Emscripten.clang"
  },
  "schemaVersion": "2.0.1",
  "updatedAt": "2018-11-03T21:06:22.323Z"
}